{
  "contractName": "profile",
  "abi": [
    {
      "inputs": [
        {
          "internalType": "string",
          "name": "_name",
          "type": "string"
        },
        {
          "internalType": "address",
          "name": "_id",
          "type": "address"
        }
      ],
      "name": "setPerson",
      "outputs": [],
      "stateMutability": "nonpayable",
      "type": "function"
    },
    {
      "inputs": [
        {
          "internalType": "uint256",
          "name": "_index",
          "type": "uint256"
        }
      ],
      "name": "getPerson",
      "outputs": [
        {
          "internalType": "string",
          "name": "",
          "type": "string"
        },
        {
          "internalType": "address",
          "name": "",
          "type": "address"
        }
      ],
      "stateMutability": "view",
      "type": "function",
      "constant": true
    }
  ],
  "bytecode": "0x608060405234801561001057600080fd5b506106ed806100206000396000f3fe608060405234801561001057600080fd5b50600436106100365760003560e01c8063246982c41461003b578063535b8dc61461006c575b600080fd5b61005560048036038101906100509190610426565b610088565b604051610063929190610497565b60405180910390f35b610086600480360381019061008191906103d2565b6101d7565b005b606060008083815481106100c5577f4e487b7100000000000000000000000000000000000000000000000000000000600052603260045260246000fd5b906000526020600020906002020160000160008481548110610110577f4e487b7100000000000000000000000000000000000000000000000000000000600052603260045260246000fd5b906000526020600020906002020160010160009054906101000a900473ffffffffffffffffffffffffffffffffffffffff1681805461014e906105b7565b80601f016020809104026020016040519081016040528092919081815260200182805461017a906105b7565b80156101c75780601f1061019c576101008083540402835291602001916101c7565b820191906000526020600020905b8154815290600101906020018083116101aa57829003601f168201915b5050505050915091509150915091565b600060405180604001604052808481526020018373ffffffffffffffffffffffffffffffffffffffff1681525090506000819080600181540180825580915050600190039060005260206000209060020201600090919091909150600082015181600001908051906020019061024e92919061029d565b5060208201518160010160006101000a81548173ffffffffffffffffffffffffffffffffffffffff021916908373ffffffffffffffffffffffffffffffffffffffff1602179055505050505050565b8280546102a9906105b7565b90600052602060002090601f0160209004810192826102cb5760008555610312565b82601f106102e457805160ff1916838001178555610312565b82800160010185558215610312579182015b828111156103115782518255916020019190600101906102f6565b5b50905061031f9190610323565b5090565b5b8082111561033c576000816000905550600101610324565b5090565b600061035361034e846104ec565b6104c7565b90508281526020810184848401111561036b57600080fd5b610376848285610575565b509392505050565b60008135905061038d81610689565b92915050565b600082601f8301126103a457600080fd5b81356103b4848260208601610340565b91505092915050565b6000813590506103cc816106a0565b92915050565b600080604083850312156103e557600080fd5b600083013567ffffffffffffffff8111156103ff57600080fd5b61040b85828601610393565b925050602061041c8582860161037e565b9150509250929050565b60006020828403121561043857600080fd5b6000610446848285016103bd565b91505092915050565b61045881610539565b82525050565b60006104698261051d565b6104738185610528565b9350610483818560208601610584565b61048c81610678565b840191505092915050565b600060408201905081810360008301526104b1818561045e565b90506104c0602083018461044f565b9392505050565b60006104d16104e2565b90506104dd82826105e9565b919050565b6000604051905090565b600067ffffffffffffffff82111561050757610506610649565b5b61051082610678565b9050602081019050919050565b600081519050919050565b600082825260208201905092915050565b60006105448261054b565b9050919050565b600073ffffffffffffffffffffffffffffffffffffffff82169050919050565b6000819050919050565b82818337600083830152505050565b60005b838110156105a2578082015181840152602081019050610587565b838111156105b1576000848401525b50505050565b600060028204905060018216806105cf57607f821691505b602082108114156105e3576105e261061a565b5b50919050565b6105f282610678565b810181811067ffffffffffffffff8211171561061157610610610649565b5b80604052505050565b7f4e487b7100000000000000000000000000000000000000000000000000000000600052602260045260246000fd5b7f4e487b7100000000000000000000000000000000000000000000000000000000600052604160045260246000fd5b6000601f19601f8301169050919050565b61069281610539565b811461069d57600080fd5b50565b6106a98161056b565b81146106b457600080fd5b5056fea264697066735822122088b8687e8a5277fa1dbd124d93aefd258b54b43dcd20569c2de07afc6c1af6e564736f6c63430008010033",
  "immutableReferences": {},
  "source": "// SPDX-License-Identifier: MIT\r\npragma solidity ^0.8.1;\r\n\r\ncontract profile{\r\n\r\n    struct Men{\r\n        string name;\r\n        address id;\r\n    }\r\n\r\n    Men[] men;\r\n\r\n\r\n    mapping(address => string) person;\r\n\r\n    function setPerson(string memory _name, address _id) public {\r\n        Men memory _men = Men(_name, _id);\r\n        men.push(_men);\r\n    }\r\n\r\n    function getPerson(uint _index) public view returns(string memory, address){\r\n        return(men[_index].name, men[_index].id);\r\n    }\r\n\r\n    \r\n}",
  "sourcePath": "D:\\Learning\\Truffle-practice\\contracts\\hello.sol",
  "compiler": {
    "name": "solc",
    "version": "0.8.1+commit.df193b15.Emscripten.clang"
  },
  "schemaVersion": "3.4.4",
  "updatedAt": "2022-01-12T09:53:14.872Z",
  "networkType": "ethereum",
  "devdoc": {
    "kind": "dev",
    "methods": {},
    "version": 1
  },
  "userdoc": {
    "kind": "user",
    "methods": {},
    "version": 1
  }
}